:020000040800F2
:10000000D8040020010100085B18000899160008B8
:100010005918000877050008EF1A000800000000D2
:100020000000000000000000000000005F18000851
:1000300079050008000000005D180008611800083C
:100040001B0100081B0100081B0100081B01000820
:100050001B0100081B0100081B0100081B01000810
:100060001B0100081B0100081B0100081B01000800
:100070001B0100081B0100081B0100081B010008F0
:100080001B0100081B0100081B0100081B010008E0
:100090001B0100081B0100081B0100081B010008D0
:1000A0001B0100081B0100081B0100081B010008C0
:1000B0001B0100081B0100081B0100081B010008B0
:1000C0001B0100081B0100081B0100081B010008A0
:1000D0001B0100081B0100081B0100081B01000890
:1000E0001B0100081B0100081B010008DFF80CD0F1
:1000F00000F0F4F900480047311B0008D804002044
:100100000648804706480047FEE7FEE7FEE7FEE7B1
:10011000FEE7FEE7FEE7FEE7FEE7FEE7B7180008AA
:10012000ED000008202A04DB203A21FA02F0002129
:10013000704721FA02F3D040C2F1200291400843F7
:1001400019467047D2B201E000F8012B491EFBD2DC
:1001500070470022F6E710B513460A4604461946D2
:10016000FFF7F0FF204610BD2DE9FE4F81EA0304A2
:1001700004F0004421F0004100944FF0000B23F004
:10018000004350EA01045ED052EA03045BD0C3F39B
:100190000A54C1F30A552C44A4F2F3340194A0FB91
:1001A0000254C1F3130141F48011C3F3130343F468
:1001B000801301FB024400FB034E840A970A44EAC1
:1001C000815447EA8357A4FB076802958D0A05FB13
:1001D00007854FEA932C04FB0C542705029D4FEA38
:1001E000065847EA1637B5EB08056EEB070C870E85
:1001F000920E47EA811742EA8312A7FB0201B6EB8F
:100200000B0164EB00042B0D43EA0C335E1844EB46
:100210001C50DA465146E7FB0201C5F313044FEACE
:100220000B3343EA14534FEA0432019C43EA0603BA
:10023000A4F10C040294009CCDE900B400F0FFF896
:1002400003B0BDE8F08F00200146F9E72DE9F04D3D
:1002500081EA030404F0004B21F0004514464FF0FE
:10026000000A23F0004150EA050220D054EA0102BE
:100270001DD0C5F30A570246C5F31303C1F313009B
:10028000C1F30A5640F4801543F48013A7EB060827
:10029000101BD64608F2FD3873EB050002D308F1B7
:1002A000010801E092185B41B8F1000F03DA002069
:1002B0000146BDE8F08D00204FF4801106468446CB
:1002C0000EE0171B73EB050705D3121B63EB050349
:1002D00006434CEA010C49084FEA300092185B4192
:1002E00050EA0107EDD152EA030012D082EA04007D
:1002F00083EA0501084305D0101BAB4106D2012259
:10030000002306E000224FF0004302E06FF00102FC
:1003100053101AEB06004CEB085110EB0A0041EBAE
:100320000B01BDE8F04D00F07BB870B521F0004343
:1003300003430CD0C1F30A550024D5EB040564EB4C
:100340000403D617AD1AB34102DB0020014670BD8D
:10035000201841EB025170BD0EB5C10F80EAE0706C
:100360000844CA07002140F233438DE80E000A46D4
:100370000B4600F064F803B000BD01F0004330B458
:1003800021F0004150EA010206D00A0DA2F5607288
:10039000C1F31301002A02DC30BC00207047440F77
:1003A00044EAC104C100E01830BC00EBC250AFF316
:1003B00000800029A8BF7047401C490008BF20F0FA
:1003C0000100704710B4B0FA80FC00FA0CF050EA5B
:1003D000010404BF10BC704749B1CCF1200421FADC
:1003E00004F411FA0CF118BF012121430843A3EBD7
:1003F0000C01CB1D4FEA00614FEA102042BF0020E4
:1004000010BC704700EBC35010440029A4BF10BCBF
:100410007047401C490008BF20F0010010BC704725
:1004200010B5141E73F1000408DA401C41F10001FC
:1004300092185B411A4301D120F0010010BD2DE953
:10044000F04D92469B4611B1B1FA81F202E0B0FA4A
:1004500080F22032904600F053F804460F4640EAFE
:100460000A0041EA0B0153465A46084313D011468D
:1004700053EA010019D0C8F140025046FFF752FE7E
:1004800005460E4650465946424600F039F80843A4
:1004900005D0012004E020463946BDE8F08D00205B
:1004A000054346EAE0762C4337430A986305E40A9D
:1004B000A0EB08000022FD0A44EA47540A3002D5A6
:1004C00000200146E9E7010510196941DDE9084509
:1004D00000196941BDE8F04DA2E70000064C074D48
:1004E00006E0E06840F0010394E807009847103404
:1004F000AC42F6D3FFF7FEFD041C0008241C0008E4
:10050000202A04DB203A00FA02F1002070479140D3
:10051000C2F1200320FA03F3194390407047000012
:1005200070B5044600688168C943C90717D181685E
:1005300021F00101816000F061FA05460AE000BF88
:1005400000F05CFA401B022804D920688068C04390
:10055000C00706D020688068C043C007F0D00020E4
:1005600070BDA06A40F01000A062E06A40F0010097
:10057000E062012070BDFEE770470000F8B500247E
:10058000009490F824202546012A12D0012280F8F8
:1005900024204A681F23072A0DD20668776B521E53
:1005A00002EB820293409F430B6893401F437763A3
:1005B00019E00220F8BD06680D2A0AD2376BD21F57
:1005C00002EB820293409F430B6893401F433763C3
:1005D00009E0F76A0D3A02EB820293409F430B68F1
:1005E00093401F43F7620A68072306680A2A0AD362
:1005F000F7680A3A02EB420293409F438B689340AC
:100600001F43F76008E0376902EB420293409F43C3
:100610008B6893401F4337610A68102A01D0112A62
:1006200020D1124B02689A4217D193681B0219D449
:10063000936843F4000393600968102912D10C49B0
:100640000C4A0968B1FBF2F101EB8101490000E0BD
:10065000491E00910029FBD104E0816A41F020018C
:100660008162012480F824502046F8BD0024014016
:100670001400002040420F002DE9F0414FF0000728
:1006800004003D467ED0A06A002628B9E66284F8C0
:100690002460204600F07EF82046FFF741FFA16A63
:1006A000C90600D420B1A06A40F01000A06269E041
:1006B000A16A21F4885141F00201A1626268E169F6
:1006C000237B0A4347EA43010A43A1684FF480773A
:1006D000B94209D0012907D05FF0000194F814C095
:1006E000BCF1010F02D00AE03946F7E7F3B1A36A83
:1006F00043F02003A362E36A43F00103E36223684B
:10070000D3F804C02CF4694C4CEA010CC3F804C0C3
:1007100021688B68DFF870C003EA0C0313438B6019
:10072000A168B9420BD0012909D00CE0DFF85CC008
:10073000A3690CEB43330B4343F40061DFE7218AE9
:100740000D05A5F580152168CB6A23F470032B43B2
:10075000CB62216889680E4B1940914208D1E6624C
:10076000A16A21F0020141F00101A162BDE8F0811E
:10077000A06A20F0020040F01000A062E06A40F0A1
:100780000100E0620120F1E7FDF7E1FF00E0FFFF7B
:10079000FE0E1FFF00B585B000210091019102916E
:1007A000039100680E49884218D10E48816941F4CE
:1007B00000718161816901F400710491816941F0E6
:1007C000080181618069694600F0080004900220F8
:1007D000009003200190044800F01AF805B000BD15
:1007E0000024014000100240000C014070B5044696
:1007F00000F004F90546601C02D004480078044467
:1008000000F0FCF8401BA042FAD370BD08000020A5
:100810002DE9F84FDFF8B891002409F1040A0AF134
:10082000040B23460F270BF1040EC9E00125A54058
:100830002A40AA427DD1674ED1F804C0ACEB06082D
:10084000B44532D014DCBCF1030F3AD009DCBCF162
:10085000000F2AD0BCF1010F1CD0BCF1020F31D126
:100860001DE0BCF1110F17D0BCF1120F2AD119E015
:10087000B8F5881F19D006DCB8F5803F15D0B8F55B
:10088000801F1FD111E0B8F5001F0ED0B8F5041F6E
:1008900018D10AE0CB6815E0CB681B1D12E0CB68CD
:1008A00008330FE0CB680C330CE08B682BB1012BC5
:1008B0004FF0080303D0456104E0042302E0056122
:1008C00000E00023FF2A01D8064601E000F10406FB
:1008D0004FEA840501D9A5F12005D6F8008007FA72
:1008E00005FC28EA0C0803FA05F548EA0508C6F8ED
:1008F00000804D68ED0062D5374DAE6946F00106C7
:10090000AE61AD6924F0030605F001050095334D95
:1009100006EB050CDCF80850A607360F07FA06F8B8
:1009200025EA0805DFF8B880404503D14FF00008FC
:1009300017E044E0DFF8AC80404502D14FF00108F9
:100940000FE0DFF8A480404502D14FF0020808E034
:10095000DFF89880404502D14FF0030801E04FF0E6
:10096000040808FA06F848EA0508CCF808804D683B
:10097000D9F80060ED034D4601D5164300E09643DB
:100980002E604D68DAF80060AD03554601D5164378
:1009900000E096432E604D68DBF80060ED025D4696
:1009A00001D5164300E096432E604D68DEF80060E6
:1009B000AD02754601D5164300E096432E60641CD7
:1009C0000D682A46E5407FF431AFBDE8F88F00009E
:1009D000000401400000111000100240000001401E
:1009E00000080140000C01400010014000140140CB
:1009F0000AB1016170470904FBE700000148806803
:100A00007047000008000020024881680278114405
:100A10008160704708000020074810B5016841F068
:100A200010010160032000F067F8002000F006F8D4
:100A300000F024F8002010BD0020024070B50D4DDC
:100A400004464FF47A712878B1FBF0F00A4909683E
:100A5000B1FBF0F000F034FB48B9102C07D20022B3
:100A60002146501E00F028F800206C6070BD012067
:100A700070BD000008000020140000200C4808B5DC
:100A8000816941F001018161816901F001010091F9
:100A9000C16941F08051C161C06900F0805000908F
:100AA0000448416821F0E06141F00071416008BDF7
:100AB0000010024000000140F0B40E4B1B680C46D1
:100AC000C3F30223C3F10705042D00D90425191D22
:100AD000072901D2002300E0DB1E012606FA05F1FA
:100AE000491E214099409E40761E16403143F0BC7D
:100AF00000F0FEBF0CED00E0064900F007020868B8
:100B00004FF6FF03184040EA0220034A10430860F2
:100B1000704700000CED00E00000FA052DE9F843F5
:100B200005460078354CC00754D0E0690026C00067
:100B300008D4E06940F08050E061E069012600F0EF
:100B4000805000902E480168C90512D40168804683
:100B500041F480710160FFF751FF074605E000BFD7
:100B6000FFF74CFFC01B642823D8D8F80000C0054D
:100B7000F6D5206A10F4407021D0A98801F44071A4
:100B800081421CD0206A1F49012220F440700A6073
:100B900000220A602062C00711D0FFF72FFF07462E
:100BA00041F2883808E000BFFFF728FFC11B41452C
:100BB00002D90320BDE8F883206A8007F4D5206AB3
:100BC000696820F44070084320621EB1E06920F09B
:100BD0008050E0612878800705D56068A96820F416
:100BE0004040084360602878C00605D56068E96821
:100BF00020F48000084360600020DBE70010024022
:100C000000700040400442422DE9F0470F460500C5
:100C100061D0434E306800F00700B84209D2306816
:100C200020F0070038433060306800F00700B84219
:100C300051D128683B4C810712D5400703D5606825
:100C400040F4E06060602878000703D5606840F4F5
:100C5000605060606068A96820F0F0000843606040
:100C60002878C00728D06868012810D02168022899
:100C700010D0890700292EDA616821F003010143B1
:100C80006160FFF7BBFE804641F288390DE02168C4
:100C90008903EFE78901EDE7FFF7B0FEA0EB08015C
:100CA000494502D90320BDE8F0876068696800F013
:100CB0000C00B0EB810FEFD1306800F00700B842B4
:100CC0000BD9306820F0070038433060306800F0FE
:100CD0000700B84201D00120E5E72878400705D594
:100CE0006068E96820F4E0600843606028780007E5
:100CF00006D56068296920F4605040EAC100606050
:100D000000F018F86168084AC1F30311515CC8404B
:100D10000649086006480068FFF790FE0020C2E719
:100D20000020024000100240F41B000814000020C4
:100D30000C00002012A185B00FC98DE80F0014A08F
:100D4000144A006804905168134801F00C03042B06
:100D500010D0082B0ED1C1F38343C9031DF8030043
:100D60000AD5516804AAC1F34041515C0A4A504374
:100D7000B0FBF1F005B0704708494843FAE70000BE
:100D800002030405060708090A0B0C0D0E0F1010CC
:100D9000010200000010024000127A0000093D002C
:100DA0002DE9F84F040070D02078C04DC00749D01D
:100DB0006868C0F38100012807D06868C0F381002B
:100DC000022809D16868C00306D52868800339D590
:100DD00060680028E7D035E06068B0F5803F0BD050
:100DE00010B1B0F5A02F11D0286820F48030286011
:100DF000286820F4802002E0286840F480302860D1
:100E0000606890B1FFF7FAFD06460AE0286840F4F2
:100E100080202860F0E700BFFFF7F0FD801B64280A
:100E200073D828688003F7D50CE0FFF7E7FD064686
:100E300005E000BFFFF7E2FD801B6428F0D82868BA
:100E40008003F7D420789A4E80074FF001094FF0C5
:100E5000000839D5686810F00C0F07D06868C0F337
:100E60008100022809D16868C00306D42868800779
:100E700014D52069012808D110E02069B0B1C6F866
:100E80000090FFF7BBFD074605E00AE1FFF7B6FD5E
:100E9000C01B0228C4D828688007F7D52868616974
:100EA00020F0F80040EAC10028600DE0C6F800809C
:100EB000FFF7A4FD074604E0FFF7A0FDC01B0228D2
:100EC00023D828688007F7D4207800072CD57948E4
:100ED000A169D9B1C0F80090FFF790FD074604E082
:100EE000FFF78CFDC01B02280FD8686A8007F7D572
:100EF00071484FF4FA510068B0FBF1F0009000BF68
:100F00000098411E0091FAD20EE080E0C0F8008007
:100F1000FFF774FD074604E0FFF770FDC01B0228D1
:100F200075D8686A8007F7D42078400760D5E869EB
:100F30000027C00008D4E86940F08050E861E86903
:100F4000012700F0805000905C480168C90513D467
:100F50000168834641F480710160FFF74FFD8246CE
:100F600006E000BFFFF74AFDA0EB0A0064284ED858
:100F7000DBF80000C005F5D5E06801280AD008B10B
:100F8000052813D0286A20F001002862286A20F082
:100F9000040002E0286A40F001002862E06841F2A3
:100FA000883B98B1FFF72AFD82460BE0286A40F0A3
:100FB00004002862EEE700BFFFF720FDA0EB0A0166
:100FC00059455AD8286A8007F6D50CE0FFF716FD78
:100FD000824605E0FFF712FDA0EB0A0159454CD807
:100FE000286A8007F6D41FB1E86920F08050E861D4
:100FF000E06988B36968C1F38101022944D00228FD
:10100000C6F8608004D0FFF7F9FC044638E034E00D
:10101000FFF7F4FC074604E0FFF7F0FCC01B0228D2
:101020002BD828688001F7D4206AB0F5803F05D11D
:101030006868A16820F4003008436860D4E90801BA
:101040000843696821F4741108436860C6F8609029
:10105000FFF7D4FC044606E025E000BFFFF7CEFC16
:10106000001B022809D828688001F7D51BE000BFC3
:10107000FFF7C4FC001B022802D90320BDE8F88F4B
:1010800028688001F4D40EE00128F7D06868226A4D
:1010900000F48031914204D1616A00F470108842FA
:1010A00001D00120EAE70020E8E70000001002403C
:1010B00000004242800442421400002000700040C0
:1010C00010B5401EB0F1807F01D3012010BD4FF05C
:1010D000E02460610F21601700F00AFD0020A0618C
:1010E00007202061002010BD10B590F83C20012A97
:1010F00022D0012280F83C20CA688C6822F4407219
:1011000022434C6822F4806222430C6822F400627D
:1011100022430C6922F4805222434C6922F400528B
:101120002243C969002322F480420A4301684A64C9
:1011300080F83C30002010BD022010BD70B590F842
:101140003C20012A26D0012480F83C40022280F86D
:101150003D2003685A689D6822F070060A68324391
:101160005A600D4B02689A4208D0B2F1804F05D008
:101170000A4B9A4202D00A4B9A4204D1496825F0A0
:1011800080031943916080F83D40002180F83C10B5
:10119000084670BD022070BD002C014000040040D4
:1011A0000008004010B5040003D094F83D0010B1D1
:1011B00007E0012010BD002084F83C00204600F02C
:1011C0001FF8022084F83D00211D206800F074FB08
:1011D000012084F8460084F83E0084F83F0084F83B
:1011E000400084F8410084F8420084F8430084F809
:1011F000440084F8450084F83D00002010BD000044
:1012000008B500680649884208D10648816941F45A
:1012100000618161806900F40060009008BD0000F9
:10122000002C01400010024070B5044690F83C00CC
:10123000012817D0012584F83C50022084F83D0095
:101240002068826822F0770222F47F428260086878
:10125000502830D00DDC20284DD005DC98B3102864
:101260003BD148E0022070BD302844D0402834D122
:1012700039E0602828D0702806D0B0F5805F2CD0E7
:10128000B0F5005F29D10AE0CB68D1E901212068DF
:1012900000F055FB2068816841F0770109E0CB68D8
:1012A000D1E90121206800F04AFB2068816841F4FF
:1012B0008041816011E0CA684968206800F0F4FB51
:1012C0005021206807E016E0CA684968206800F0ED
:1012D000FCFB6021206800F03CFB84F83D500020BE
:1012E00084F83C0070BDCA684968206800F0DCFBE7
:1012F00040212068EFE7226801461046EBE72DE920
:10130000F0410D46040003D094F83D0018B108E008
:101310000120BDE8F081002084F83C00204600F068
:1013200041F8022084F83D002068816844F20702F9
:1013300091438160211D206800F0BEFA2268906808
:101340009169166A2B68AF69034340F20330814309
:1013500041EA0721A868EF6908434FF6FC4188433A
:10136000E96840EA0720014328692F6A000140EA42
:101370000730084369686D6926F0220646EA0515BC
:10138000294393602268906154F8460B0162012062
:1013900004F81F09E0752076E0762077A07500201C
:1013A000B7E7000000B585B00021009101910291DE
:1013B00003910068B0F1804F18D10D48C16941F028
:1013C0000101C161C16901F001010491816941F02C
:1013D000040181618069694600F0040004900320E3
:1013E0000090012002900348FFF712FA05B000BDFB
:1013F000001002400008014070B590F83E600446BD
:1014000090F83F5090F8423090F84320022021B1EC
:1014100004290ED0012E1BD114E0012E18D1012B6E
:1014200016D184F83E0084F8420001220021206891
:1014300020E0012D0CD1012A0AD184F83F0084F864
:10144000430014E0012D03D1012B01D1012A01D069
:10145000012070BD84F83E0084F83F0084F842000B
:1014600084F8430001220021206800F05BFA012289
:101470000421206800F056FA2068016841F001015B
:101480000160002070BD000000B585B00021009112
:1014900001910291039100680C49884213D10C48D4
:1014A000816941F0040181618069694600F00400AE
:1014B00004904FF48070009002200190012003906E
:1014C0000448FFF7A5F905B000BD0000002C01405D
:1014D000001002400008014070B5044690F83C003E
:1014E0000D4601280AD0012084F83C0042B1042AAC
:1014F00018D0082A2AD00C2A4DD139E0022070BD1C
:10150000206800F02FFA2068816941F008018161AC
:101510002068816921F004018161206881692A695C
:10152000114311E0206800F045FA2068816941F418
:10153000006181612068816921F480618161206896
:1015400081692A6941EA0221816124E0206800F072
:101550005DFA2068C16941F00801C1612068C16974
:1015600021F00401C1612068C1692A69114311E0B9
:10157000206800F077FA2068C16941F40061C16118
:101580002068C16921F48061C1612068C1692A694C
:1015900041EA0221C161002084F83C0070BD10B511
:1015A000040003D094F83D0010B107E0012010BD05
:1015B000002084F83C00204600F01EF8022084F849
:1015C0003D00211D206800F077F9012084F84600D5
:1015D00084F83E0084F83F0084F8400084F841001D
:1015E00084F8420084F8430084F8440084F84500FD
:1015F00084F83D00002010BD7047000010B504467F
:10160000022249B104290ED0082913D094F84100D0
:10161000012816D0012010BD94F83E000128F9D110
:1016200084F83E200FE094F83F000128F2D184F8BE
:101630003F2008E094F840000128EBD184F84020D6
:1016400001E084F841200122206800F06BF90F4985
:101650002068884203D1426C42F400424264206810
:10166000884208D0B0F1804F05D00949884202D0A5
:101670000849884204D1816801F00701062903D096
:10168000016841F001010160002010BD002C014003
:101690000004004000080040FEE700003EB50024C2
:1016A0000D480094019402940A4984600160012568
:1016B0000573047505614FF460214460C161FEF754
:1016C000DBFF0920CDE90005694602940248FEF7D8
:1016D00055FF3EBD002401401800002030B585B004
:1016E00000241A480094019402940394816941F003
:1016F00020018161816901F020010491816941F03B
:1017000004018161816901F004010491816941F062
:101710000801816180690E4D00F0080004900022EC
:1017200020212846FFF764F9012240212846FFF7CF
:101730005FF9602000900120CDE9010402200390B0
:1017400069462846FFF764F805B030BD0010024036
:101750000008014010B596B000240F941094119425
:10176000129413941C2108A81494FEF7F2FC202173
:101770006846FEF7EEFC20481E49C0E9001440F21E
:10178000E731C0E90241046144618461FFF70AFD69
:101790004FF480500F900FA91748FFF745FD1648EA
:1017A000FFF7FDFE139413A913481494FFF7C6FC2A
:1017B0006020089040F2F310CDE909040B940C94DA
:1017C0000D94002208A90C480E94FFF785FE0094A2
:1017D0004FF40050CDE9044002940194039469460B
:1017E00005480794FFF780FC0348FFF74DFE16B04D
:1017F00010BD0000002C01404800002010B58CB046
:1018000024216846FEF7A5FC0024124809944FF0F5
:1018100080410A94C0E900144FF6FF71C0E902410B
:10182000046184610320CDE900040120CDE90204B4
:101830000494CDE905400794694606480894FFF7EB
:101840005EFD099409A903480A94FFF777FC0CB0E0
:1018500010BD000090000020FEE770477047704701
:10186000FFF7D2B830B593B028216846FEF771FC77
:1018700014210AA8FEF76DFC002401250F94109492
:101880002804CDE900501194129407946846FFF79C
:1018900087FA0F200A90CDE90B540D9400210AA875
:1018A0000E94FFF7B1F902200F9011940FA8FFF7E3
:1018B00035F913B030BD7047F0B50268164B174CC0
:1018C000174D4FF08047984205D0B84203D0A04250
:1018D00001D0A84203D122F070064A6832439842F0
:1018E00005D0B84203D0A04201D0A84203D122F4CF
:1018F0004074CA6822434C6922F08002224302608D
:101900008A68C2620A688262984201D109690163E9
:1019100001214161F0BD0000002C014000040040A5
:101920000008004010B501F01F030121046A99402E
:101930008C430462016A9A401143016210BD10B5E4
:10194000846842EA032224F47F440A4322438260EB
:1019500010BD826822F070020A4342F007018160E4
:101960007047000030B5026A22F001020262026A8A
:101970004368846924F073050C682C4322F0020547
:101980008A682A430A4DA8420BD122F00805CA688A
:1019900023F440732A434D6922F004021D438B69EE
:1019A0002B434360846149684163026230BD00009B
:1019B000002C014030B5026A22F010020262026A75
:1019C000436884690D6824F4E64444EA05248D687C
:1019D00022F0200242EA05120B4DA8420ED1CD683A
:1019E00022F0800242EA05124D6923F4406343EA83
:1019F00085038D6922F0400243EA850343608461D8
:101A000049688163026230BD002C014030B5026A32
:101A100022F480720262036A4268C46923F400738C
:101A200024F073050C682C438D6843EA05230C4DA4
:101A3000A8420ED1CD6823F4006343EA05234D6923
:101A400022F4405242EA05128D6923F4806342EA8F
:101A500005124260C4614968C163036230BD000081
:101A6000002C014030B5026A22F480520262046AFE
:101A70004268C3690D6823F4E64343EA05238D6891
:101A800024F4005444EA0534064DA84204D14D69BB
:101A900022F4804242EA85124260C36149680164CF
:101AA000046230BD002C014010B5036A046A24F0C2
:101AB00001040462846924F0F00444EA021423F06F
:101AC0000A020A438461026210BD10B5036A23F062
:101AD000100303628369046A23F4704343EA023209
:101AE00024F0A00343EA01118261016210BDFEE708
:101AF0000907090E002804DB00F1E02080F800143B
:101B0000704700F00F0000F1E02080F8141D7047CE
:101B100002E008C8121F08C1002AFAD170477047B6
:101B2000002001E001C1121F002AFBD17047000014
:101B3000FEF772FFFFF796FEFFF7D0FDFFF70AFEF4
:101B4000FFF75CFEFFF7AAFD00212348FFF756FDD3
:101B5000214800214830FFF74FFC1F48042148303E
:101B6000FFF74AFC1C4F1D4E1D4CDFF878B00025D6
:101B700007F148084FF0FA094FF0804A3968C1F878
:101B8000349000224FF480413046FEF731FF0122AD
:101B9000D1033046FEF72CFFD8F80000406A00B2AF
:101BA0002080FEF7D9FB104A104BFEF74FFB4FF099
:101BB000FF32FEF7BAFB00220D4BFEF7D5FAFEF717
:101BC000DCFB6060CAF82450CBF800504FF47A7008
:101BD000FEF70CFED2E7000048000020000801409C
:101BE00000000020240400409A99999999496D4079
:101BF00000004E400000000000000000010203044D
:101C000006070809241C0008000000201800000036
:101C1000101B00083C1C000818000020C004000035
:101C2000201B000800000000000000000100000070
:0C1C300010000000000000000024F40080
:04000005080000ED02
:00000001FF
